:100000000C9429010C9451010C9451010C94510150
:100010000C945B1D0C9451010C9451010C94C6225C
:100020000C9451010C9451010C94C9160C9451017B
:100030000C9451010C948A130C94CC130C94510120
:100040000C9451010C9451010C9451010C94B11574
:100050000C94510105A84CCDB2D44EB93836A90242
:100060000C50B9918688083CA6AAAA2ABE000000B6
:10007000803F506978793A206932632074696D65F0
:100080006F7574000D0A004552524F523A200050CD
:100090006F7274657870616E64657220636F6E6EE6
:1000A000656374696F6E206572726F7200506F7253
:1000B00074657870616E64657220636F6E6E6563DF
:1000C00074696F6E206572726F72000D0A0045527E
:1000D000524F523A20004932432073686F727400C5
:1000E0004932432043617000476F6C64626F6172F4
:1000F000643A2069326320706F7274657870616E43
:10010000646572206572726F7200476F6C64626F13
:100110006172643A2069326320706F72746578701E
:10012000616E646572206572726F7200656E642024
:10013000693263207363616E0D0A0020756E6B6E09
:100140006F776E0D0A0020506F7274657870616E63
:100150006465720D0A00204C617365720D0A0020FF
:10016000556C747261736368616C6C0D0A00205089
:100170006978790D0A00204B6F6D706173730D0AF9
:100180000020557372696E670D0A002020200073ED
:100190007461727420693263207363616E0D0A00AA
:1001A0004932432073686F7274004932432063619F
:1001B00070000D0A004552524F523A2000434D50F4
:1001C0005331313A20006E6F2061636B000D0A00DD
:1001D0004552524F523A2000434D505331313A204C
:1001E0000074696D656F7574006E6F2061636B00DC
:1001F0000D0A004552524F523A2000535246207782
:1002000072697465005352462074696D656F757428
:10021000005352462074696D656F757400535246E1
:10022000206572726F72005352462074696D656F5B
:10023000757400535246303820696E6974000D0A97
:10024000004552524F523A20000004113913212325
:10025000631311241FBECFE5D8E0DEBFCDBF11E090
:10026000A0E6B0E0E0EBF0E502C005900D92AC3FF7
:10027000B107D9F725E0ACEFB1E001C01D92A23281
:10028000B207E1F711E0C8E2D1E004C02197FE0116
:100290000E947523C532D107C9F70E94F1120C9450
:1002A0004B280C940000CF93682F70E042E050E0A0
:1002B00086EC94E00E947A2286EC94E00E94AC22C4
:1002C000C82F86EC94E00E94AC2220E0382FC901B0
:1002D0008C2BCF91089586EB92E00E94C01EE2E540
:1002E000F2E030E020E0AC01022E02C055954795C7
:1002F0000A94E2F7417041932F5F3F4F203131055F
:1003000091F72091950220939402892B21F081E0AE
:100310008093950208951092950208950F931F936C
:100320000E942A17009188021091890220918A0266
:1003300030918B02601B710B820B930B6B3F71052D
:100340008105910590F08EEA92E00E94AA21909397
:100350004502809344020E942A176093880270939A
:10036000890280938A0290938B021F910F910895C6
:100370006F927F928F929F92AF92BF92CF92DF92B5
:10038000EF92FF920F931F93CF93DF930E942A1750
:1003900000913E0210913F022091400230914102B3
:1003A000601B710B820B930B6C31710581059105FC
:1003B00008F48DC180913C0290913D0290933B02E4
:1003C00080933A02809138029091390290933702DB
:1003D000809336020E942A1760933E0270933F0278
:1003E00080934002909341028091A2028111B6C095
:1003F00029EEE22E23E0F22ECFEFDFEF8091A10273
:100400000E9453018C01009709F053C0209709F016
:1004100090C08AE090E00E945317CE01D09343022F
:10042000C093420210922B0210922C0210923102C1
:1004300030E020E0209709F435C160912F027091DF
:100440003002A0912D02B0912E0260903C0270907B
:100450003D02E0903802F0903902E0919F02F09165
:10046000A002912C812C10E000E030E020E050E070
:1004700040E080EFA82EB12C0C171D070CF0FDC03A
:10048000C080D18081E0C816D10409F0E4C0119683
:100490006280738090EA691A7108E480F580C50172
:1004A0008E199F097C01882483940F5F1F4F3C960F
:1004B000E3CF85359A4A09F5C535DA4AD1F5109268
:1004C000A3021092A5021092A4029CE0D92ECC2483
:1004D000C3948091A1020E9453018C012091A40237
:1004E0003091A50205358AEA1807D9F581E0809395
:1004F000A2021092A302E90190CF06359AEA1907E9
:1005000039F4C535DA4AA9F481E08093A302D9CF42
:100510000A3AF5E51F0769F46091A10270E041E035
:1005200050E086EC94E00E947A2286EC94E00E94EF
:10053000AC2221E0E21AF108E80109F05FCF87E878
:1005400090E00E94111482E790E00E94111484E868
:1005500090E00E941114D0E0C0E05FCF1092A202A0
:10056000B0CFE90106359AEA190731F481E08093AA
:10057000A2028093A30251CF0115110509F44DCFBA
:100580008091A6029091A70282179307A0F44E963D
:100590009093A7028093A602D89EB001D99E700DB9
:1005A000112480919F029091A0020E944527909370
:1005B000A00280939F022091A4023091A502D29EB6
:1005C000C001D39E900D1124E0909F02F090A002F4
:1005D000E80EF91E4701B12CA12CC0E08091A302C6
:1005E000811124C0C53011F5F701138612860A1552
:1005F0001B0549F48091A4029091A5020196909365
:10060000A5028093A4028091A1020E945301C0918F
:10061000A402D091A5028535FAEA9F07A9F41092A9
:10062000A302C238D10508F454CF95CF8091A1021E
:100630000E945301A80EB91EF401819391934F01BA
:10064000CF5FC63059F6D3CF86359A4A09F0E5CE4A
:10065000C092A302E6CF92E0C916D10409F025CFDB
:100660006F5F7F4FC280D3804C0D5D1DC480D580ED
:100670002C0D3D1D9924939418CF80922B02B0939A
:100680002E02A0932D0270923D0260923C02F092E5
:100690003902E092380290923102709330026093F6
:1006A0002F02CA01E0912F02F0913002BF010E9497
:1006B0003F23605A71097093350260933402C90177
:1006C000BF010E943F237093330260933202DF9197
:1006D000CF911F910F91FF90EF90DF90CF90BF903F
:1006E000AF909F908F907F906F900895CF93DF93FE
:1006F000C2E2D2E0A9E1B2E0FE0181918D9382E0F5
:10070000EB32F807D1F78BEA92E00E947B17982F23
:1007100091709093220281FB992790F99093230284
:1007200082FB992790F99093240283FB992790F9F3
:100730009093250284FB992790F99093260285FBDC
:10074000992790F99093270286FB882780F9809358
:10075000280260E087EB92E00E943D1B8093290213
:1007600061E087EB92E00E943D1B80932A0281E0CA
:100770009991FE013197992341F0108292E0CB329A
:10078000D907B1F7DF91CF9108958083F7CF0F9309
:100790001F93CF930E946B0102E612E0C0E06C2F22
:1007A00086EB92E00E94161F90E0F80181939193EE
:1007B0008F01CF5FC03199F70E9476030E948E01AE
:1007C0000E94B80167E087EB92E00E942F1B209106
:1007D000820230918302820F932F911D9093180211
:1007E00080931702CF911F910F9108950E946B0182
:1007F0000C94090F0E94760344E850E062E070E038
:1008000090E080E00E94DE1045E950E070E060E09A
:1008100081E090E00E94DE104BE950E070E060E083
:1008200082E090E00E94DE1044EA50E070E060E078
:1008300083E090E00E94DE104FEA50E063E170E058
:1008400080919202909193020E94DE104091920258
:100850005091930263E170E090E080E00E94EE101E
:10086000209123028091920290919302222399F089
:1008700001979093930280939202809192029091BB
:1008800093028430910581F583E090E09093930288
:1008900080939202089520912502222311F001965F
:1008A000E8CF20912202222341F38130910521F4E7
:1008B00081E080939602E1CF029799F48BE090E07B
:1008C000909367008093660081E090E0909393029C
:1008D0008093920268EC70E080E090E00E94331711
:1008E000CCCF8EE090E0ECCF181619069CF281E098
:1008F00090E0CCCF41EB50E070E060E090E080E031
:100900000E94DE104BEB50E06DE070E090E080E084
:100910000E94DE1040EC50E070E060E081E090E08A
:100920000E94DE1046EC50E070E060E082E090E073
:100930000E94DE104BEC50E070E060E083E090E05D
:100940000E94DE104FEA50E063E170E08091920275
:10095000909193020E94DE10809123028823C1F0BF
:1009600080919202909193020197909393028093C9
:1009700092028091920290919302843091050CF43E
:1009800060C083E090E09093930280939202089578
:1009900080912502882331F08091920290919302F8
:1009A0000196E3CF80912402882379F08CE090E0D7
:1009B000909367008093660068EC70E080E090E0C0
:1009C0000E94331781E090E0D0CF80912602811100
:1009D000EDCF809122028823F1F0809192029091D4
:1009E00093028130910559F41092670010926600CD
:1009F00068EC70E080E090E00E943317BACF029775
:100A000039F485E090E09093670080936600F0CF22
:100A100084E090E0F8CF80912902882309F4A9CFDF
:100A20008AE090E0909367008093660082E090E017
:100A3000909393028093920264EF71E080E090E0E3
:100A4000DBCF181619060CF4A2CF81E090E09BCF03
:100A500047ED50E065E070E090E080E00E94DE103D
:100A600041EE50E060E170E090E080E00E94DE1036
:100A700046EE50E070E060E081E090E00E94DE1021
:100A80004EEE50E070E060E082E090E00E94DE1008
:100A900046EF50E070E060E083E090E00E94DE10FE
:100AA0004FEA50E063E170E08091920290919302EE
:100AB0000E94DE10809123028823C1F0809192026F
:100AC0009091930201979093930280939202809168
:100AD000920290919302843091050CF45EC083E001
:100AE00090E0909393028093920208958091240263
:100AF000882379F08BE090E0909367008093660004
:100B000068EC70E080E090E00E94331781E090E0B4
:100B1000DACF80912502882331F080919202909162
:100B200093020196D0CF809126028111E3CF80916C
:100B300022028823E1F08091920290919302813009
:100B4000910569F483E090E09093670080936600DC
:100B500068EC70E080E090E00E943317B8CF029715
:100B600019F486E090E0F0CF87E090E0EDCF80913F
:100B70002902882309F4ABCF8AE090E090936700C4
:100B80008093660082E090E09093930280939202BB
:100B900064EF71E080E090E0DFCF181619060CF4E6
:100BA000A4CF81E090E09DCF0F931F930E942A175E
:100BB00000918E0210918F0220919002309191024B
:100BC000601B710B820B930B693E7340810591058D
:100BD00060F00E9400110E942A1760938E027093A9
:100BE0008F02809390029093910280912902882332
:100BF00091F08BE090E0909367008093660081E035
:100C000090E0909393028093920264EF71E080E011
:100C100090E00E94331780916600909167000097E2
:100C200009F0BFC09091280280912202911106C262
:100C3000811110C08091230281110CC08091240287
:100C4000811108C080912502811104C08091260283
:100C5000882361F081E090E09093670080936600C4
:100C600068EC70E080E090E00E9433174EEF50E0B7
:100C700067E070E090E080E00E94DE1050E040E02D
:100C800064E070E081E090E00E94EE1041E050E00E
:100C90006BE070E081E090E00E94EE1042E050E0F6
:100CA00064E070E082E090E00E94EE1043E050E0EB
:100CB0006BE070E082E090E00E94EE1044E050E0D3
:100CC00064E070E083E090E00E94EE1045E050E0C8
:100CD0006BE070E083E090E00E94EE1043E251E0B0
:100CE00065E070E081E090E00E94DE1043E251E0B8
:100CF0006CE070E081E090E00E94DE1043E251E0A1
:100D000065E070E082E090E00E94DE1043E251E096
:100D10006CE070E082E090E00E94DE1043E251E07F
:100D200065E070E083E090E00E94DE1043E251E075
:100D30006CE070E083E090E00E94DE10409152028F
:100D400050E066E070E081E090E00E94EE1040919B
:100D5000530250E06DE070E081E090E00E94EE1000
:100D60004091540250E066E070E082E090E00E9422
:100D7000EE104091550250E06DE070E082E090E0AE
:100D80000E94EE104091560250E066E070E083E071
:100D900090E00E94EE104091570250E06DE070E04C
:100DA000C2C08130910509F034C59091280280912C
:100DB0002202911111C2811110C080912302811170
:100DC0000CC080912402811108C0809125028111FC
:100DD00004C080912602882361F082E090E0909325
:100DE00067008093660068EC70E080E090E00E940D
:100DF00033174EEF50E067E070E090E080E00E9433
:100E0000DE1046E050E064E070E081E090E00E9497
:100E1000EE1047E050E06BE070E081E090E00E946F
:100E2000EE1048E050E064E070E082E090E00E9464
:100E3000EE1049E050E06BE070E082E090E00E944C
:100E4000EE104AE050E064E070E083E090E00E9441
:100E5000EE104BE050E06BE070E083E090E00E9429
:100E6000EE1043E251E065E070E081E090E00E9426
:100E7000DE1043E251E06CE070E081E090E00E941F
:100E8000DE1043E251E065E070E082E090E00E9415
:100E9000DE1043E251E06CE070E082E090E00E94FE
:100EA000DE1043E251E066E070E083E090E00E94F3
:100EB000DE1043E251E06DE070E083E090E00E94DC
:100EC000DE104091580250E066E070E081E090E072
:100ED0000E94EE104091590250E06DE070E081E018
:100EE00090E00E94EE1040915A0250E066E070E0FF
:100EF00082E090E00E94EE1040915B0250E06DE0D5
:100F000070E082E090E00E94EE1040915C0250E0C0
:100F100067E070E083E090E00E94EE1040915D0297
:100F200050E06EE070E083E090E0DDC29091280236
:100F300080912202911119C2811110C08091230267
:100F400081110CC080912402811108C0809125027A
:100F5000811104C080912602882351F0109267000D
:100F60001092660068EC70E080E090E00E94331719
:100F70004EEF50E067E070E090E080E00E94DE100D
:100F80004CE050E063E070E082E090E00E94EE1000
:100F90004DE050E06AE070E082E090E00E94EE10E8
:100FA0004EE050E063E070E083E090E00E94EE10DD
:100FB0004FE050E06AE070E083E090E00E94EE10C5
:100FC00043E251E065E070E082E090E00E94DE10D4
:100FD00043E251E06CE070E082E090E00E94DE10BD
:100FE00043E251E065E070E083E090E00E94DE10B3
:100FF00043E251E06CE070E083E090E00E94DE109C
:1010000040915E0250E066E070E082E090E00E9475
:10101000EE1040915F0250E06DE070E082E090E001
:101020000E94EE104091600250E066E070E083E0C4
:1010300090E00E94EE1040916102AFCE811110C08D
:101040008091230281110CC080912402811108C07B
:1010500080912502811104C080912602882361F0CD
:1010600081E090E0909367008093660068EC70E008
:1010700080E090E00E9433174EEF50E067E070E0B0
:1010800090E080E00E94DE1050E040E064E070E01C
:1010900081E090E00E94EE1041E050E06BE070E0F3
:1010A00081E090E00E94EE1042E050E064E070E0E9
:1010B00082E090E00E94EE1043E050E06BE070E0D0
:1010C00082E090E00E94EE1044E050E064E070E0C6
:1010D00083E090E00E94EE1045E050E06BE070E0AD
:1010E00083E090E00E94EE1043E251E065E070E0A2
:1010F00081E090E00E94DE1043E251E06CE070E09D
:1011000081E090E00E94DE1043E251E065E070E093
:1011100082E090E00E94DE1043E251E06CE070E07B
:1011200082E090E00E94DE1043E251E065E070E072
:1011300083E090E00E94DE1043E251E06CE070E05A
:1011400083E090E00E94DE1060E086EB92E00E9477
:10115000161F482F50E066E070E081E090E00E94AA
:10116000EE1061E086EB92E00E94161F482F50E0DF
:101170006DE070E081E090E00E94EE1062E086EBAE
:1011800092E00E94161F482F50E066E070E082E077
:1011900090E00E94EE1063E086EB92E00E94161F42
:1011A000482F50E06DE070E082E090E00E94EE1089
:1011B00064E086EB92E00E94161F482F50E066E044
:1011C00070E083E090E00E94EE1065E086EB92E034
:1011D0000E94161F482FE1CD811110C0809123027B
:1011E00081110CC080912402811108C080912502D8
:1011F000811104C080912602882361F082E090E092
:10120000909367008093660068EC70E080E090E067
:101210000E9433174EEF50E067E070E090E080E00E
:101220000E94DE1046E050E064E070E081E090E073
:101230000E94EE1047E050E06BE070E081E090E04B
:101240000E94EE1048E050E064E070E082E090E040
:101250000E94EE1049E050E06BE070E082E090E028
:101260000E94EE104AE050E063E070E083E090E01E
:101270000E94EE104BE050E06AE070E083E090E006
:101280000E94EE1043E251E065E070E081E090E002
:101290000E94DE1043E251E06CE070E081E090E0FB
:1012A0000E94DE1043E251E065E070E082E090E0F1
:1012B0000E94DE1043E251E06CE070E082E090E0DA
:1012C0000E94DE1043E251E065E070E083E090E0D0
:1012D0000E94DE1043E251E06CE070E083E090E0B9
:1012E0000E94DE1066E086EB92E00E94161F482FF7
:1012F00050E066E070E081E090E00E94EE1067E070
:1013000086EB92E00E94161F482F50E06DE070E0DF
:1013100081E090E00E94EE1068E086EB92E00E948F
:10132000161F482F50E066E070E082E090E00E94D7
:10133000EE1069E086EB92E00E94161F482F50E005
:101340006DE070E082E090E00E94EE106AE086EBD3
:1013500092E00E94161F482F50E066E070E083E0A4
:1013600090E00E94EE106BE031CF811110C08091AF
:10137000230281110CC080912402811108C0809148
:101380002502811104C080912602882351F0109219
:1013900067001092660068EC70E080E090E00E94C8
:1013A00033174EEF50E067E070E090E080E00E947D
:1013B000DE104CE050E063E070E082E090E00E94DC
:1013C000EE104DE050E06AE070E082E090E00E94B4
:1013D000EE104EE050E063E070E083E090E00E94A9
:1013E000EE104FE050E06AE070E083E090E00E9491
:1013F000EE1043E251E065E070E082E090E00E9490
:10140000DE1043E251E06CE070E082E090E00E9488
:10141000DE1043E251E065E070E083E090E00E947E
:10142000DE1043E251E06CE070E083E090E00E9467
:10143000DE106CE086EB92E00E94161F482F50E011
:1014400066E070E082E090E00E94EE106DE086EBD6
:1014500092E00E94161F482F50E06DE070E082E09D
:1014600090E00E94EE106EE086EB92E00E94161F64
:10147000482F50E066E070E083E090E00E94EE10BC
:101480006FE0A4CE88EA92E00E94812064EF71E0D0
:1014900080E090E00E94331740E061E087EB92E04B
:1014A0000E94101B88EA92E01F910F910C94082073
:1014B00084309105E1F446E151E064E070E090E0B1
:1014C00080E00E94DE1042E251E070E060E082E0E5
:1014D00090E00E94DE10409144025091450262E08B
:1014E00070E082E090E01F910F910C94EE10853037
:1014F000910509F081C045E251E066E070E090E0BE
:1015000080E00E94DE104AE251E070E060E081E09D
:1015100090E00E94DE10409142025091430268E048
:1015200070E081E090E00E94EE1042E351E070E054
:1015300060E082E090E00E94DE1048E351E064E069
:1015400070E082E090E00E94DE1040913C025091F9
:101550003D0266E070E082E090E00E94EE104BE316
:1015600051E06AE070E082E090E00E94DE1040917D
:101570003802509139026CE070E082E090E00E9405
:10158000EE1040912B0250E060E170E082E090E0CC
:101590000E94EE104EE351E070E060E083E090E0E6
:1015A0000E94DE1048E351E064E070E083E090E0E8
:1015B0000E94DE10409134025091350266E070E0E6
:1015C00083E090E00E94EE104BE351E06AE070E0AF
:1015D00083E090E00E94DE1040913202509133028D
:1015E0006CE070E083E090E00E94EE1040913102E8
:1015F00050E060E170E097CC8630910509F0E6C0DC
:1016000043E451E066E070E090E080E00E94DE108C
:1016100050E040E070E060E081E090E00E94EE1079
:1016200043E251E061E070E081E090E00E94DE1072
:101630004091220250E062E070E081E090E00E9480
:10164000EE1041E050E070E060E082E090E00E9447
:10165000EE1043E251E061E070E082E090E00E9431
:10166000DE104091230250E062E070E082E090E002
:101670000E94EE1042E050E070E060E083E090E015
:101680000E94EE1043E251E061E070E083E090E000
:101690000E94DE104091240250E062E070E083E09E
:1016A00090E00E94EE1043E050E068E070E081E0DE
:1016B00090E00E94EE1043E251E069E070E081E0CA
:1016C00090E00E94DE104091250250E06AE070E058
:1016D00081E090E00E94EE1044E050E068E070E0AD
:1016E00082E090E00E94EE1043E251E069E070E099
:1016F00082E090E00E94DE104091260250E06AE015
:1017000070E082E090E00E94EE1045E050E068E07A
:1017100070E083E090E00E94EE1043E251E069E067
:1017200070E083E090E00E94DE104091270250E0DC
:101730006AE070E083E090E00E94EE1046E050E046
:1017400061E170E081E090E00E94EE1043E251E040
:1017500062E170E081E090E00E94DE10409128029A
:1017600050E063E170E081E090E00E94EE1047E01D
:1017700050E061E170E082E090E00E94EE1043E210
:1017800051E062E170E082E090E00E94DE10409162
:10179000290250E063E170E082E090E00E94EE10E8
:1017A00048E050E061E170E083E090E00E94EE10DC
:1017B00043E251E062E170E083E090E00E94DE10DD
:1017C00040912A0250E063E170E0ADCB079709F049
:1017D00065C04BE451E063E070E090E080E00E947F
:1017E000DE10409117025091180263E070E081E032
:1017F00090E00E94EE1049E551E065E070E082E083
:1018000090E00E94DE1040912B0250E065E070E015
:101810008ACB8230910509F489CB8330910509F098
:1018200047CE44E051E065E070E090E080E00E9447
:10183000DE10409148025091490270E060E081E082
:1018400090E00E94EE104CE051E070E060E082E039
:1018500090E00E94DE104FEA50E063E170E082E029
:1018600090E00E94DE10809122028823B9F088EA7D
:1018700092E00E94712068EE73E080E090E00E94A8
:101880003317809129028111FDCD0E94760341E03A
:1018900061E087EB92E00E94101BF3CF1F910F9144
:1018A000089544EA50E063E070E090E080E00E9438
:1018B000DE1042E651E070E060E081E090E00E94DE
:1018C000DE104AE651E070E060E082E090E00E94C5
:1018D000DE1040E751E070E060E083E090E00E94BD
:1018E000DE1045E751E065E070E083E090E00E94A3
:1018F000DE1049E751E069E070E083E090E00E948B
:10190000DE104FEA50E063E170E080919202909126
:1019100093020E94DE1080912202882389F1809137
:1019200092029091930281309105D9F48FE090E07A
:10193000909367008093660068EC70E080E090E030
:101940000E94331780919202909193028330910507
:101950000CF43FC082E090E0909393028093920257
:101960000895029779F78DE090E090936700809357
:10197000660081E090E09093930280939202DCCF26
:1019800080912302882331F08091920290919302FA
:101990000197F1CF80912502882331F08091920246
:1019A000909193020196E7CF80912902882351F20A
:1019B0008AE090E0909367008093660081E090E079
:1019C000909393028093920264EF71E080E090E044
:1019D000B7CF1816190624F281E090E0BDCFCF9260
:1019E000DF92EF92FF9242E651E065E070E090E016
:1019F00080E00E94DE1045E851E070E060E081E0A8
:101A000090E00E94DE104BE851E067E070E081E07A
:101A100090E00E94DE10409102025091030269E0C2
:101A200070E081E090E00E94EE104DE851E06CE043
:101A300070E081E090E00E94DE104FE851E070E03D
:101A400060E083E090E00E94DE108091010246E9B0
:101A500051E0811102C049E951E067E070E083E0A4
:101A600090E00E94DE104EE951E070E060E082E01C
:101A700090E00E94DE10409160005091610067E0AC
:101A800070E082E090E00E94EE104FEA50E063E1E7
:101A900070E080919202909193020E94DE108091FA
:101AA0002202882309F440C00E942A176B017C019E
:101AB0000E942A176C197D098E099F0960317742AF
:101AC00081059105B0F40E94C70320910102809125
:101AD00002029091030260916000709161002223E4
:101AE00019F00E940112E4CF50E040E00E940B1177
:101AF000DFCF50E040E070E060E090E080E00E94E6
:101B00000B118091920290919302843091050CF414
:101B100082C083E090E09093930280939202FF90C2
:101B2000EF90DF90CF90089580912302882351F0A9
:101B300080919202909193020197909393028093E7
:101B400092021EC080912402882389F18091920222
:101B5000909193028130910551F48091020290910D
:101B600003020A97909303028093020209C0833014
:101B7000910589F480910102882349F010920102B5
:101B800068EC70E080E090E00E943317BACF81E00B
:101B900080930102F5CF029799F7809160009091B0
:101BA00061000A979093610080936000E9CF809173
:101BB0002502882331F08091920290919302019640
:101BC000BCCF809126028823C1F08091920290912F
:101BD00093028130910531F48091020290910302C9
:101BE0000A96C0CF8330910529F2029749F6809179
:101BF0006000909161000A96D5CF809129028823D8
:101C000009F47FCF8EE090E09093670080936600A8
:101C100081E090E092CF181619060CF480CF81E095
:101C200090E079CF4AE651E066E070E090E080E035
:101C30000E94DE1044EA51E070E060E081E090E054
:101C40000E94DE104FEA50E063E170E08091920262
:101C5000909193020E94DE104091640050916500C3
:101C600069E070E082E090E00E94EE104BE851E005
:101C700067E070E082E090E00E94DE104DE851E005
:101C80006CE070E082E090E00E94DE104FEA51E0EC
:101C900070E060E083E090E00E94DE10809122021C
:101CA0008823E1F08091920290919302019711F4C0
:101CB0000C94981280910002882361F01092000227
:101CC00068EC70E080E090E00E94331780910002A1
:101CD0000C94AE1281E080930002F2CF8091240236
:101CE000882379F08091640090916500019790932A
:101CF00065008093640068EC70E080E090E00C94F4
:101D0000331780912302882369F080919202909189
:101D100093020197F9F483E090E09093930280930B
:101D20009202E9CF80912602882331F080916400ED
:101D3000909165000196DBCF809125028111E5CF5E
:101D400080912902882349F08EE090E0909367000B
:101D50008093660081E090E0E0CF08958091920248
:101D6000909193029093FF018093FE018091660011
:101D7000909167009093FD018093FC010E94C7033E
:101D8000809166009091670088309105F4F40E947C
:101D9000D4052091FC013091FD0180916600909165
:101DA00067002817390779F42091FE013091FF016F
:101DB00080919202909193022817390721F4809123
:101DC0002A02882329F10C9400118A30910519F414
:101DD0000E94FA03DECF8B30910519F40E947A0439
:101DE000D8CF8C30910519F40E942805D2CF8D30C0
:101DF000910519F40E94120ECCCF8E30910519F482
:101E00000E94510CC6CF0F9721F60E94EF0CC1CF54
:101E1000089580915D02811109C080915E02811157
:101E200005C080915F02882309F45FC081E0809340
:101E30004A0280915C02882309F45AC081E08093B1
:101E40004B0280915B02811109C080915A0281117D
:101E500005C080915902882309F44DC081E0809328
:101E60004C0280915802882309F448C081E0809395
:101E70004D0280915702811108C080915602811154
:101E800004C0809155028823E1F181E080934E02E5
:101E9000809154028823C1F181E080934F028091A8
:101EA0005302811108C080915202811104C08091B7
:101EB0006102882361F181E0809350028091600289
:101EC000882341F181E080935102EAE4F2E090E05E
:101ED00080E021912111019622E0E235F207C9F755
:101EE0009093090280930802089510924A02A1CFAC
:101EF00010924B02A6CF10924C02B3CF10924D021B
:101F0000B8CF10924E02C4CF10924F02C8CF109299
:101F10005002D4CF10925102D8CF80914B029091B1
:101F20004A02992309F181111EC080914C0281114E
:101F30001AC080914D02811116C080914E0281110C
:101F400012C080914F0281110EC080915002811108
:101F50000AC080915102811106C084EB90E09093F9
:101F600063008093620008958111FDCF80914C023F
:101F70008823C9F090914D02911113C090914E02A7
:101F800091110FC090914F0291110BC0909150028E
:101F9000911107C090915102911103C08EE091E020
:101FA000DECF8111E0CF80914D02811115C080916B
:101FB0004E02882389F080914F0281110DC08091DB
:101FC0005002811109C080915102811105C0109207
:101FD000630010926200089580914D028111C3CF79
:101FE00080914E028111BFCF80914F028111BBCFF2
:101FF00080915002882309F4B6CF8091510281115B
:10200000B2CF8AE590E0ABCF80914A028823C1F03D
:1020100090914B02911114C090914C02911110C0FB
:1020200090914D0291110CC090914E02911108C0F7
:1020300090914F02911104C09091500291110AC0E9
:1020400090915102992369F020915002211102C010
:102050008823E9F087E890E0909363008093620022
:1020600008958823A1F020914C02222381F0209131
:102070004D0221110CC020914E02211108C0209167
:102080004F02211104C02091500221110AC0209159
:102090004B02222361F1811104C030914C023323A1
:1020A000D1F181EE90E0D8CF811112C0211110C082
:1020B00080914C02882361F080914E02882341F088
:1020C000311106C080915002882311F0992361F0EC
:1020D00080914D02882379F180914C02811104C0D6
:1020E00080914E02882339F18BE391E0B5CF8111C5
:1020F00012C030914C0231110EC030914D0231119D
:102100000AC030914E02332331F030915002332314
:1021100011F0992369F030914F02332329F2409155
:102120004E02411105C040915002442309F4BCCF36
:102130008DE290E091CF0895CF92DF92EF92FF92DF
:1021400080919502882331F080919402811102C020
:102150000E948D0F8091080290910902029714F05D
:102160000E9404100E942A176B017C010E942A170A
:102170006C197D098E099F096A3F710581059105DA
:1021800068F40E946B0150E040E06FEF70E08091D6
:102190006200909163000E940B11E8CFFF90EF90D6
:1021A000DF90CF90089520E044E060E18AE092E083
:1021B0000E94B9198AE092E00C940D1ACF93DF9334
:1021C000EA01462F682F8AE092E00E945C19BE0166
:1021D0008AE092E0DF91CF910C944D1ACF93DF9378
:1021E000EA01462F682F8AE092E00E945C194AE0DB
:1021F00050E0BE018AE092E0DF91CF910C94091B80
:102200008AE092E00C948C1924E040E165E28AE0D7
:1022100092E00C94F3184F925F926F927F928F929C
:102220009F92AF92BF92CF92DF92EF92FF920F9365
:102230001F93CF93DF938B01EA01BC01990F880BA9
:10224000990B0E9492242BED3FE049E450E40E9458
:10225000452520E030E044E353E40E94E8232B01CD
:102260003C0166277727601B710B072E000C880B3B
:10227000990B0E9492244B015C0124EE3BEC46E159
:1022800050E4C301B2010E947B230E94B2259B014E
:10229000AC01C501B4010E94452523E333E343E3C8
:1022A0005FE30E94E8230E945A246B012BED3FE07C
:1022B00049E45FE3C301B2010E947B230E94B2257F
:1022C0009B01AC01C501B4010E94452523E333E322
:1022D00043E35FE30E94E8230E945A249E012C19E5
:1022E0003D0930939802209397029E01260F371FD5
:1022F00030939A0220939902CE01861B970B9093FC
:102300009C0280939B02CC0DDD1DD0939E02C09356
:102310009D0287E9E82E82E0F82EF701D0E0C0E0C8
:102320008191919197FF03C0919581959109C8176B
:10233000D9070CF4EC0182E0EF39F80789F7B8010E
:10234000110F880B990B0E9492244B015C01BE0176
:10235000DD0F880B990B0E9492249B01AC01C501F3
:10236000B4010E94E8234B015C01F7016191719176
:102370007F01EF012297072E000C880B990B0E941A
:102380009224A50194010E9445250E945A24798334
:102390006883FFE9EF16F2E0FF0639F760919702D4
:1023A0007091980287EB92E00E94B51860919902B3
:1023B00070919A028BEB92E00E94B51860919B029B
:1023C00070919C028FEB92E00E94B51860919D0283
:1023D00070919E0283EC92E00E94B51887E992E02A
:1023E000DF91CF911F910F91FF90EF90DF90CF90F1
:1023F000BF90AF909F908F907F906F905F904F9025
:1024000008958C01EB0183E393E3A3E3BFE380939F
:10241000680090936900A0936A00B0936B0070907D
:102420003102772061F08AE999E9A9E9BEE3809356
:10243000680090936900A0936A00B0936B00CE018E
:1024400068EE73E00E943F236F5F7F4F072E000C02
:10245000880B990B0E9492244B015C01E09048028A
:10246000F0904902B70160587109072E000C880BE3
:10247000990B0E949224209168003091690040914C
:102480006A0050916B000E9445251B012C01809130
:10249000460290914702B701681B790B072E000C8A
:1024A000880B990B0E9492249B01AC01C201B101DF
:1024B0000E947C230E945A246B01772001F16091D5
:1024C000340270913502072E000C880B990B0E9484
:1024D000922423E333E343E35FE30E9445252B018A
:1024E0003C01B601DD0C880B990B0E9492249B01E4
:1024F000AC01C301B2010E947C230E945A24719551
:1025000061957109072E000C880B990B0E9492248B
:10251000A50194010E9445250E945A24CB0163E045
:1025200070E00E943F23AB01BE01C8010E940B1165
:1025300041E061E087EB92E00E94221B6091640021
:1025400070916500072E000C880B990B0E943317C1
:1025500040E061E087EB92E00C94221B482F60E0A2
:1025600087EB92E00C94221B0E94D3100E94001172
:1025700086EB92E00E94801E64EB86EB92E00E9464
:102580005F1F62E28BEA92E00E94631788EA92E0A2
:102590000E94881F88EA92E00E94082086EC94E05E
:1025A0000E94C02140E063E087EB92E00E94D61BCE
:1025B0006AEF70E080E090E00E94331767E087EBFD
:1025C00092E00E942F1B2FEF30E0281B310930933F
:1025D00083022093820241E063E087EB92E00C9457
:1025E000D61B0E94B41268EB71E089E195E00E946D
:1025F0005A1A0E94AE0E809196028823A1F30E947F
:102600000011C1E06FEB71E089E195E00E945A1A78
:102610000E94F60380913802909139020197C19788
:1026200060F4809148029091490285569109CB97B8
:1026300020F4C0932C0210922B02809195028823E3
:1026400079F00E949C10809127028823D9F250E0F3
:1026500040E070E060E090E080E00E940B11D2CF9B
:1026600050E040E070E060E090E080E00E940B11FC
:10267000EACFCF93DF9387EB92E00E94821C86EB38
:1026800092E00E947D1E8EEA92E00E948A208BEAF0
:1026900092E00E945D1788EA92E00E94831FCFE9D2
:1026A000D2E01B821E821D828EE190E098878F838C
:1026B00088E691E00E941B269983888384E58A83BB
:1026C000DF91CF91089580919F029091A0020C9488
:1026D000B426803369F48091CD029091CE02892B8B
:1026E000A1F481E090E09093CE028093CD02089512
:1026F000803259F48091CD029091CE02019729F455
:10270000F8941AB8E0E0FFE309941092CE02109218
:10271000CD0208951F920F920FB60F9211242F939E
:102720003F934F935F936F937F938F939F93AF9359
:10273000BF93CF93DF93EF93FF93CBB1DCB18D2F9A
:102740000E946913E091D102EF5FEF718091D00296
:102750008E1701F18C2F8871E093D102F0E0EC52DA
:10276000FD4FD0839091CF02892B8093CF02FF91B0
:10277000EF91DF91CF91BF91AF919F918F917F9119
:102780006F915F914F913F912F910F900FBE0F90DE
:102790001F90189582E0E6CF8F938FB78F939F930A
:1027A000EF93FF939091D3028091D202981791F00A
:1027B000E091D202EF5FEF71E093D202F0E0EC50D3
:1027C000FD4F80818CB9FF91EF919F918F918FBFC9
:1027D0008F9118955598F7CF1092D3021092D2028C
:1027E0001092D1021092D00297FF03C022E02BB9C1
:1027F0009F7790BD89B988E98AB986E880BD089538
:102800009091D3029F5F9F712091D2022917E1F32B
:10281000E92FF0E0EC50FD4F80839093D302559A5E
:102820000895CF93DF93EC01FE01849121968111ED
:1028300003C0DF91CF9108950E940014F5CF10924C
:10284000810381E080937F0310927E03A89AA99A66
:102850000898099888E480B985E486BF089586B70A
:102860008A7B86BFA898A99808954132F0F5909187
:1028700081039111FCCF91E09093810320937F031A
:102880002FEF2093140310925903240F2093580321
:102890009093800390918003880F892B809380030D
:1028A00080917E038130F9F410927E038091800341
:1028B00083B906B603FCFACF85EC86BF809181030D
:1028C0008130E1F380915903841710F4409159034A
:1028D0002AE533E0FB01D9018A2F821B841730F4EB
:1028E0008D918193F9CF85EEE8CF40E0842F089554
:1028F000CF92DF92EF92FF920F93413208F063C0C4
:10290000CC24C394D12CE12CFC2C909181039923ED
:1029100069F091E0C91AD108E108F108B1F784E043
:102920000F91FF90EF90DF90CF90089592E09093F9
:10293000810300937F039FEF909314031092590338
:1029400040935803362FAAE5B3E0FB019E2F931B5B
:10295000941718F491919D93F9CF10928003909160
:102960008003880F892B8093800380917E038130C0
:10297000C9F410927E038091800383B906B603FCEC
:10298000FACF85EC86BF81E090E0A0E0B1E02223A1
:1029900059F030918103323039F40197A109B1091E
:1029A000B1F7BDCF85EEEECF809114038F3F69F074
:1029B00080911403803259F080911403803309F020
:1029C000AECF83E0ADCF81E0ABCF80E0A9CF82E096
:1029D000A7CF20913603260F3327331F213231052D
:1029E000E4F4209181032430D1F4FC0190E080E0F4
:1029F000861760F4A09136032191AC01485C5C4FCE
:102A0000A40FB52FB11D2C930196F2CF8091360300
:102A1000860F8093360380E0089581E0089582E078
:102A2000089585ED86BF06B604FCFDCF10928103A4
:102A3000089585EC86BF1092810308950E942F149B
:102A400084B38C7F84BB85B3836085BB989902C0B7
:102A500081E00895999BFCCFA898A09A80E0989B6C
:102A600004C08A3FA9F38F5FFACF8A3F89F38B3086
:102A700058F5A19AA99880E0999B04C08A3F41F338
:102A80008F5FFACF8A3F21F38B3000F5A198A99A86
:102A900080E0999904C08A3FD9F28F5FFACF8A3FCC
:102AA000B9F28B30A8F4A098A89A80E0989904C055
:102AB0008A3F71F28F5FFACF8A3F51F28B3050F428
:102AC0000E941F1480E0089584E0089582E0089534
:102AD00083E0089585E00895CF930E942F14F89421
:102AE000A198A99A84E690E00E945317C4E6A098A2
:102AF000A89A84E690E00E945317A898A09A84E6CA
:102B000090E00E945317999B29C0A998A19A84E646
:102B100090E00E945317A098A89A84E690E00E9443
:102B20005317A198A99A84E690E00E945317A89899
:102B3000A09A84E690E00E945317999B0FC0A0983A
:102B4000A89A84E690E00E94531788EE93E00E94D2
:102B500053170E941F147894CF910895C15039F6ED
:102B6000F4CF1F920F920FB60F9211242F933F9321
:102B70004F935F936F937F938F939F93AF93BF9385
:102B8000EF93FF9381B1887F803609F44CC008F041
:102B90003FC0883209F4A4C018F5803109F49AC006
:102BA000B8F4882309F4F2C0883009F493C0FF9187
:102BB000EF91BF91AF919F918F917F916F915F91B5
:102BC0004F913F912F910F900FBE0F901F9018952E
:102BD000883109F485C0803251F78093140315C001
:102BE000803409F499C048F48033B9F38833F9F696
:102BF000809314030E941915DACF803509F481C03F
:102C0000883509F491C0883491F60E941115CFCF10
:102C1000883909F487C030F5883729F050F48836B0
:102C200011F0803721F683E0809381031092150321
:102C300054C0883809F476C0803919F0803809F01A
:102C4000B6CF80911503803208F06CC0E091150377
:102C500081E08E0F8093150383B1F0E0EA5EFC4FB4
:102C600080833BC0803B39F0E0F4803A09F473C0C4
:102C7000883A09F09CCF84E0809381031092370357
:102C800010923603E0917C03F0917D0309958091C9
:102C9000360381110FC081E0809336031092380310
:102CA00009C0803C09F470C0883C09F46DC0883BC1
:102CB00009F07DCFE091370381E08E0F80933703D9
:102CC000F0E0E85CFC4F808183B9909137038091FC
:102CD000360326C08091800383B985EC86BF67CF19
:102CE0009091590380915803981748F5E091590342
:102CF00081E08E0F80935903F0E0E65AFC4F80810B
:102D0000EBCFE091590381E08E0F8093590383B19B
:102D1000F0E0E65AFC4F808390915903809158036C
:102D20009817D8F285E8DACFE091590381E08E0F49
:102D30008093590383B1F0E0E65AFC4F8083809181
:102D40007F03811162CF81E080937E0384EA86BF96
:102D5000109281032CCF0E941915809115038032A7
:102D600030F4E0911503F0E0EA5EFC4F10826091D0
:102D7000150370E0E0917A03F0917B0386E193E024
:102D800009951092150313CF85ECE1CF109214032F
:102D90003CCF1F920F920FB60F9211242F933F93A7
:102DA0004F935F936F937F938F939F93AF93BF9353
:102DB000EF93FF938091820390918303A09184030A
:102DC000B09185030196A11DB11D8093820390935C
:102DD0008303A0938403B0938503809187038A3093
:102DE00079F480918603811109C081E08093860384
:102DF00078940E947F18F8941092860310928703AB
:102E0000809187038F5F809387030E94D417FF917F
:102E1000EF91BF91AF919F918F917F916F915F9152
:102E20004F913F912F910F900FBE0F901F901895CB
:102E300083B78B6083BF89B7826089BF8AEF8CBFFD
:102E400010928203109283031092840310928503E0
:102E50007894089560918203709183038091840334
:102E60009091850308950F931F93AB01BC010091CE
:102E70008203109183032091840330918503809114
:102E8000820390918303A0918403B0918503801BFA
:102E9000910BA20BB30B84179507A607B70778F31E
:102EA0001F910F910895019739F0880F991F880F8E
:102EB000991F02970197F1F70895FC01108281E0B4
:102EC000818312820895FC0162830895FC01808150
:102ED00021E030E001C0220F6A95EAF7442341F077
:102EE000282B20839081981711F081E08183089529
:102EF00020952823F6CFCF93DF93EC016A8186ECEF
:102F000094E00E94CA2141E06A8186EC94E00E942C
:102F1000772286EC94E00E94AC22888386EC94E0D1
:102F20000E94E921882381F08EEC90E00E94111428
:102F30008DEA90E00E9411148BEC90E00E94111435
:102F400080E0DF91CF9108958881FBCFCF93DF930D
:102F5000EC018981882329F186EC94E00E94BF224C
:102F600081111FC06A8186EC94E00E94CA2141E071
:102F700050E0BE0186EC94E00E947D2286EC94E055
:102F80000E94E921882361F08EEC90E00E941114E8
:102F90008FE890E00E9411148BEC90E00E941114D5
:102FA0001982DF91CF910895789490B383B3907F85
:102FB00082958F70892B90918704E92FF0E0E85774
:102FC000FC4F80839F5F90938704F894089581B3AA
:102FD0008F7081BB84B38F7084BB82B3806F82BBE0
:102FE00085B3806F85BB90E080E0FC01E857FC4F23
:102FF000108201968F3F9105C1F7089520916C00D2
:10300000222341F090939A04809399040E94451ED4
:1030100010926C000895EF92FF920F931F93CF933D
:10302000DF93F82E082F10E0000F111FF801EF5664
:10303000FB4F20813181F801E757FB4FC081D181DF
:103040002C173D0779F1AE01421B530B80916D00A7
:1030500090E0841795076CF5EC01C20FD31F8091A7
:10306000990490919A046F2D660FEE24E394E60E76
:10307000D7FF2AC041E00E94661740E06E2D809184
:10308000990490919A040E9466176C2F61958F2D78
:103090000E94091DF801EF56FB4FD183C08381E0E8
:1030A00080938804DF91CF911F910F91FF90EF9053
:1030B000089566277727681B790B461757077CF614
:1030C000E901C81BD90BCBCF40E0209761F00E94EB
:1030D000661741E06E2D8091990490919A040E94A8
:1030E00066176C2FD4CF0E94661740E06E2D80913A
:1030F000990490919A040E94661760E0C8CF80E01E
:103100000E940B1881E00E940B1882E00E940B18AD
:1031100083E00E940B1880918804882351F00E945C
:10312000731E8091990490919A040E94A6171092A0
:1031300088040895FC011082128211820895FF9282
:103140000F931F93CF93DF93EC01F62E8A01CA01F0
:103150000E94FE171A830983F88288E28B83DF912D
:10316000CF911F910F91FF900895FC01161617063D
:10317000A4F4238130E062177307F4F06F3F710508
:1031800019F014F06FEF70E0E081F0E0EE0FFF1F38
:10319000E757FB4F71836083089561157105A1F3B3
:1031A00061308FEF780754F0238130E0319521951D
:1031B00031092617370744F7B901E6CF61E07FEF01
:1031C000E3CF90E080E00895089560E068276B7693
:1031D000682783FB60F985FB66F986FB65F986EC59
:1031E00094E00C94EC21FC01138212828AEC91E0B1
:1031F0009183808311866483428723871486089590
:103200001F93CF93DF93EC01162F6C8186EC94E033
:103210000E94CA218C85812B0E94E51886EC94E0DF
:10322000DF91CF911F910C94E9210F931F93CF93BE
:103230008C01C62F64600E94001981E090E00E941A
:1032400053176C2F6B7FC8010E94001982E390E036
:10325000CF911F910F910C9453171F93CF93DF932E
:10326000EC01162F0E940019612FCE01DF91CF9142
:103270001F910C9415190F931F93CF93DF938C011B
:10328000D62FC42F607F642B0E942D1980E1D89F18
:10329000B00111246C2BC801DF91CF911F910F91C8
:1032A0000C942D1940E00C943B1962E00E945219D5
:1032B00080ED97E00C945317CF93DF93CDB7DEB733
:1032C00028970FB6F894DEBF0FBECDBF28E0ECE71D
:1032D000F0E0DE01119601900D922A95E1F7FC01D4
:1032E0002085241710F44FEF420F50E0440F551F74
:1032F00021E030E02C0F3D1F420F531FFA012081C7
:10330000620F606828960FB6F894DEBF0FBECDBF7F
:10331000DF91CF910C945219CF93DF93EC0161E0D0
:103320000E94521980ED97E00E94531789858823E7
:1033300039F040E060E0CE01DF91CF910C945C1950
:10334000DF91CF910895FC016681262F24602683AA
:103350006C600C945219FC016681262F2160268333
:1033600069600C94521941E00E943B1981E090E0A1
:103370000895CF93DF93EC01423018F08D8188607F
:103380008D834887222329F0413019F48D81846090
:103390008D8362E370E080E090E00E9433176C85DB
:1033A000CE010E94001968EE73E080E090E00E9478
:1033B000331760E3CE010E942D1984E991E10E9448
:1033C000531760E3CE010E942D1984E991E10E9418
:1033D000531760E3CE010E942D1986E990E00E9408
:1033E000531760E2CE010E942D196D816062CE01FB
:1033F0000E94521984E08E83CE010E94A319CE014F
:103400000E948C1982E08F8366E0CE010E945219DF
:10341000CE01DF91CF910C9455190C94AB19CF923A
:10342000DF92EF92FF920F931F93CF93DF937C0174
:103430006A0110E000E00C151D0581F0EB01D701D9
:10344000ED91FC910190F081E02D6991C701099502
:10345000892B21F00F5F1F4FBE01EDCFC801DF9117
:10346000CF911F910F91FF90EF90DF90CF90089533
:103470006115710579F0FB0101900020E9F73197A2
:10348000AF01461B570BDC01ED91FC910280F381EB
:10349000E02D099490E080E008950C94381ADC0146
:1034A000ED91FC910190F081E02D099462ED71E0C5
:1034B0000C94381A0F931F93CF93DF93EC010E9463
:1034C000381A8C01CE010E94561A800F911FDF918D
:1034D000CF911F910F9108954F925F926F927F92BB
:1034E000AF92BF92CF92DF92EF92FF920F931F9312
:1034F000CF93DF93CDB7DEB7A1970FB6F894DEBFB9
:103500000FBECDBF5C016A017B0119A2223008F415
:103510002AE08E010F5D1F4F422E512C712C612C21
:10352000C701B601A30192010E9453236A3028F516
:10353000605DF80162938F01C414D504E604F704BA
:10354000C8F4BF01C5010E94381AA1960FB6F894BD
:10355000DEBF0FBECDBFDF91CF911F910F91FF90C6
:10356000EF90DF90CF90BF90AF907F906F905F9083
:103570004F90089569017A01D3CF695CDACFCF9279
:10358000DF92EF92FF920F931F93CF93DF93EC01A3
:103590006A017B012115310579F4E881F9810190F7
:1035A000F081E02D642FDF91CF911F910F91FF905B
:1035B000EF90DF90CF9009942A303105E9F42AE0AA
:1035C000F7FE1AC06DE20E944F1A8C01442755275E
:1035D000BA014C195D096E097F092AE0CE010E94EB
:1035E0006C1A800F911FDF91CF911F910F91FF9067
:1035F000EF90DF90CF900895B701A601CE01DF9143
:10360000CF911F910F91FF90EF90DF90CF900C948E
:103610006C1A9A01AB01770F660B770B0C94BF1AEB
:10362000623060F46E5F81E090E001C0880F6A95BF
:10363000EAF795B3411103C0892B85BB08958095A6
:103640008923FBCF623050F484E0860F6FEF411185
:1036500001C060E00E94091D0C94731E0895462F5E
:10366000683048F460E482E00E94122396958795C2
:1036700096958795089580E00895CF93C62F64307E
:10368000F8F427B370E06C5F7F4F81E090E0062E86
:1036900001C0880F0A94EAF7382F3095232327BBFF
:1036A00028B3822B88BB86B390E002C0959587959E
:1036B0006A95E2F7817098B3932398BBCF910895F0
:1036C0006C3060F440960E947B1790E0C45002C0BA
:1036D00095958795CA95E2F78170F0CF643108F02F
:1036E00045C084EF860F843008F544B323E0281BDF
:1036F00030E02C5F3F4F81E090E0022E01C0880F48
:103700000A94EAF7582F5095342F352334BB35B33C
:10371000832B85BB83B390E002C0959587952A954E
:10372000E2F7817095B3952395BBC8CF21B3C05103
:103730006C2F70E06C5F7F4F81E090E0062E01C03F
:10374000880F0A94EAF7382F3095232321BB22B340
:10375000822B82BB80B390E002C0959587956A95D5
:10376000E2F7817092B3932392BBA8CF80E06C31D3
:1037700008F0A4CF2AB3C45181E090E00C2E01C020
:10378000880F0A94EAF7382F309523232ABB2BB3EE
:10379000822B8BBB89B390E002C095958795CA9523
:1037A000E2F781709BB393239BBB88CFCF93DF93CA
:1037B0006430D0F427B36C5F81E090E0A0E0B0E02B
:1037C00004C0880F991FAA1FBB1F6A95D2F7282B28
:1037D00027BB28B3442329F0822B88BBDF91CF91EC
:1037E000089580958223F9CF6C3058F4EC016096EF
:1037F0006450CE010E946617CE01DF91CF910C94E8
:10380000A6176431A8F584EF860F8430C8F424B37A
:1038100037E0381B81E090E0A0E0B0E004C0880F02
:10382000991FAA1FBB1F3A95D2F7282B24BB25B39B
:10383000442319F0822B85BBD1CF80958223FBCF07
:1038400021B36C5081E090E0A0E0B0E004C0880FAC
:10385000991FAA1FBB1F6A95D2F7282B21BB22B341
:10386000442319F0822B82BBB9CF80958223FBCFF2
:103870006C3108F0B3CF2AB3645181E090E0A0E04E
:10388000B0E004C0880F991FAA1FBB1F6A95D2F72A
:10389000282B2ABB2BB3442319F0822B8BBB9ECF42
:1038A00080958223FBCF68E370E086EC94E00E9471
:1038B000D42186EC94E00E94E921882371F085EB05
:1038C00091E00E9411148AE091E00E94111482EBB1
:1038D00091E00E94111480E008956FE370E086EC9F
:1038E00094E00E94D42186EC94E00E94E921882390
:1038F00039F085EB91E00E94111488EE90E0E5CF5D
:1039000081E00895AF92BF92CF92DF92EF92FF9243
:103910000F931F93CF93DF93EC017C015C0180E157
:10392000A80EB11C8E01C8010E949A180C5F1F4F8F
:103930000A151B05C1F7C5010E945D176E0183E1E1
:10394000C80ED11CC6010E945D17789488E090E0F3
:103950000E94EC1384B38C6084BB85B38C6085BB00
:103960008AB3807F8ABB8AB38F708ABB87B38F701C
:1039700087BB86EC94E00E94C2228823B1F086ECDB
:1039800094E00E94C42286EC94E00E94C22282301D
:10399000B8F185EB91E00E9411148AEA91E00E944F
:1039A000111482EB91E00E94111486EC94E00E94C5
:1039B000C0210E94451E0E94E7176FE3C5010E94C7
:1039C000631768E3C6010E94631710E0A601612F28
:1039D000C7010E949F181F5F84E0E80EF11C14309D
:1039E000A9F70E941817CE01DF91CF911F910F9177
:1039F000FF90EF90DF90CF90BF90AF900C94531C4E
:103A0000813099F685EB91E00E94111480EA91E0F3
:103A1000C6CF863028F4E82FF0E0E154FB4F6083F6
:103A20000895CF93DF9325E030E040E0E42FF0E00D
:103A3000E217F307CCF4BF0167547B4FDB015C91C5
:103A4000E654FB4F8081C52FD0E0C154DB4FA82F37
:103A5000B0E0A154BB4FC8819C919C1718F4DB01C6
:103A60008C9350834F5FE2CF21503109F1F6DF9103
:103A7000CF9108952091740030917500809170006D
:103A800090917100409172005091730050937500B5
:103A90004093740040916E0050916F0050937100FC
:103AA00040937000309373002093720090936F00E6
:103AB00080936E0008951F920F920FB60F921124FB
:103AC0002F933F934F935F936F937F938F939F9326
:103AD000AF93BF93EF93FF93E091C504E11151C001
:103AE00080919C04882351F00E943A1D10929C04FE
:103AF00088B3807F88BB82B3837F82BBE091C5049B
:103B00008091700090917100E80FF92FF11D808174
:103B100028B3982F9F70922B98BB92B38695869569
:103B20008C70892B82BBE091C504809174009091C8
:103B30007500E80FF92FF11D808183BD8091C504C8
:103B40008F5F8093C504E0917400F0917500E80FD9
:103B5000F11D9081992311F0873011F41092C50462
:103B6000FF91EF91BF91AF919F918F917F916F9155
:103B70005F914F913F912F910F900FBE0F901F902B
:103B800018958091700090917100E80FF92FF11D48
:103B9000808128B3982F9F709095922398BB92B301
:103BA000869586958C7080958923BCCF80919C04E6
:103BB0008111FCCF81E080939C040895EF92FF92E5
:103BC0000F931F93CF93DF93E0916E00F0916F00FE
:103BD0001082C9EBD4E06FEB74E050E040E001E00C
:103BE00010E09991E92FF0E0E154FB4F80818B3098
:103BF000E0F0E52FF0E0A0916E00B0916F00780149
:103C000001C0EE0C9A95EAF79C919E299C93841B27
:103C1000990BA0916E00B0916F008530910514F55D
:103C2000EA0FFB1F8081E82AE0826C177D07C9F646
:103C3000852F90E0A0917200B0917300A80FB91F7A
:103C400040954C93563038F4E0917200F091730037
:103C5000E80FF91F1182DF91CF911F910F91FF9013
:103C6000EF900895AE0FBF1F1196EC928A30910528
:103C700014F48AE090E02091720030917300E20F1A
:103C8000F31F8083480F5F5FD0CFCF9380919B0459
:103C9000811127C0F8941092B904C1E0C093BA040E
:103CA00082E08093BB0483E08093BC0484E0809333
:103CB000BD0485E08093BE040E94DE1D0E943A1D73
:103CC00087B38F6087BB81B38C6081BB85B58B6008
:103CD00085BD89B7806889BF8FEF83BD7894C09315
:103CE0009B04CF91089580919C048111FCCF0E9488
:103CF000111D0E94DE1D0C94D61DFC01108208953A
:103D00000F931F93CF93DF9300D0CDB7DEB78C0115
:103D100019821A8264E370E086EC94E00E94D42158
:103D200042E050E0BE016F5F7F4F86EC94E00E945E
:103D30007D2286EC94E00E94E9218823B9F080ED91
:103D400091E00E9411148DEB91E00E94111486EC19
:103D500091E00E9411148DEC91E00E9411140F90DB
:103D60000F90DF91CF911F910F91089560ED77E053
:103D700080E090E00E94331781E0F8018083EFCF6C
:103D8000EF92FF920F931F93CF93DF930F92CDB7D4
:103D9000DEB7FC018081882331F164E370E086ECBA
:103DA00094E00E94D421198241E050E0BE016F5F8F
:103DB0007F4F86EC94E00E947D2286EC94E00E9486
:103DC000E921882399F080ED91E00E9411148DEB98
:103DD00091E00E94111486EC91E00E9411148DEC88
:103DE00091E00E94111410E000E017C042E064E38B
:103DF00086EC94E00E94772286EC94E00E94AC224C
:103E00007C0186EC94E00E94AC2200E0182F0E0D9D
:103E10001F1D86EC94E00E94E921C8010F90DF91FC
:103E2000CF911F910F91FF90EF9008951F93CF9323
:103E3000DF930F92CDB7DEB7162FFC018081882368
:103E400039F164E370E086EC94E00E94D4211E5FB7
:103E5000198341E050E0BE016F5F7F4F86EC94E034
:103E60000E947D2286EC94E00E94E921882391F053
:103E700080ED91E00E9411148DEB91E00E941114ED
:103E800086EC91E00E9411148DEC91E00E941114D7
:103E900010E00FC041E064E386EC94E00E947722DA
:103EA00086EC94E00E94AC22182F86EC94E00E94ED
:103EB000E921812F0F90DF91CF911F910895CF932A
:103EC000DF9300D0CDB7DEB7FC0180818823B1F04D
:103ED00081E089836A8364E370E086EC94E00E9469
:103EE000D42142E050E0BE016F5F7F4F86EC94E04A
:103EF0000E947D2286EC94E00E94E9210F900F90B1
:103F0000DF91CF910895FC011182108212820895F1
:103F1000FC011182108212820895CF92DF92EF92FB
:103F2000FF920F931F93CF938C0160E670E086ECB5
:103F300094E00E94D42161E086EC94E00E94EC21A0
:103F400086EC94E00E94E921C82F8823D1F083EF0A
:103F500091E00E94111488ED91E00E94111489EE05
:103F600091E00E94111480EF91E00E941114C0E0D2
:103F70008C2FCF911F910F91FF90EF90DF90CF90FA
:103F8000089541E050E060E670E086EC94E00E9425
:103F90007A220E942A176B017C0186EC94E00E9431
:103FA000A52218161906E4F00E942A176C197D093B
:103FB0008E099F09693E73408105910570F383EF77
:103FC00091E00E94111488ED91E00E94111481EE9D
:103FD00091E00E94111480EF91E00E941114C8CF6B
:103FE00086EC94E00E94AC22F8012281222349F061
:103FF00020813181820F931F8F3F910524F08F5FC5
:104000009109C82FB5CF97FFFCCF81509F4FF9CFB3
:104010001F93CF93DF93EC01198218821A821BE061
:10402000288139812115310509F5CE010E948D1FA6
:1040300090E0998388836AE070E080E090E00E94DD
:104040003317115069F783EF91E00E94111488ED46
:1040500091E00E94111481EE91E00E94111480EF12
:1040600091E0DF91CF911F910C94111480E890E0C2
:10407000821B930B9983888381E08A83DF91CF91A0
:104080001F910895CF93C62F60E670E086EC94E010
:104090000E94D42160E086EC94E00E94EC216C2F19
:1040A00086EC94E00E94EC2186EC94E00E94E921E9
:1040B000882381F083EF91E00E94111488ED91E054
:1040C0000E94111489EE91E00E94111480EF91E09A
:1040D0000E94111462E370E080E090E0CF910C94B4
:1040E0003317CF93DF93EC0160EF0E94422065EF1E
:1040F000CE010E94422067EFCE01DF91CF910C9458
:10410000422068EF0E94422062E370E080E090E08D
:104110000C943317FC0110821482138216821582CC
:104120001782128211820895CF92DF92EF92FF924E
:10413000CF93DF93EC018881811102C020E045C05C
:1041400069817A8186EC94E00E94D42160E086EC5B
:1041500094E00E94EC2186EC94E00E94E921811118
:10416000EDCF69817A8141E050E086EC94E00E94D5
:104170007A220E942A176B017C0186EC94E00E944F
:10418000A52218161906C4F00E942A176C197D0979
:104190008E099F09693E73408105910570F381E4A2
:1041A00092E00E94111487E292E00E9411148EE3C3
:1041B00092E00E941114C2CF86EC94E00E94AC22DF
:1041C00021E08F3F91050CF0B9CF822FDF91CF9185
:1041D000FF90EF90DF90CF900895CF92DF92EF9213
:1041E000FF92CF93DF93EC018881882301F18F81C7
:1041F0008130E9F469817A8186EC94E00E94D421CF
:1042000062E086EC94E00E94EC2186EC94E00E944F
:10421000E921882379F081E492E00E9411148DE174
:1042200092E00E9411148EE392E00E94111490E03B
:1042300080E03EC069817A8142E050E086EC94E003
:104240000E947A220E942A176B017C0186EC94E07E
:104250000E94A522029794F40E942A176C197D09E6
:104260008E099F09693E73408105910578F381E4C9
:1042700092E00E94111481E192E0D3CF86EC94E0A9
:104280000E94AC229C838B8386EC94E00E94AC223B
:1042900020E03B81820F931F9C838B83009779F4EE
:1042A0008D819E819C838B8383E08F838B819C8116
:1042B000DF91CF91FF90EF90DF90CF90089501971D
:1042C00099F71C821B82F0CFCF93DF93D62FC42F98
:1042D000FC016181728186EC94E00E94D4216D2FF3
:1042E00086EC94E00E94EC216C2F86EC94E00E9416
:1042F000EC2186EC94E00E94E921882371F081E4AE
:1043000092E00E9411148BEF91E00E9411148EE351
:1043100092E0DF91CF910C941114DF91CF91089529
:104320001F93CF93DF93EC011881112361F08F81EC
:10433000882311F0833061F441E560E0CE010E94F2
:10434000642181E08F83812FDF91CF911F910895A8
:1043500010E0F9CFCF93DF93EC010E9490218823E6
:1043600029F08B819C81DF91CF910895CE010E942D
:1043700094208823B1F3CE01DF91CF910C94ED20EE
:104380001092F0041092EF041092CD041092CC041D
:104390000C941F1481E08093CB046093EE04109280
:1043A000CD041092CC0408950C94CA210F93062FCB
:1043B00021E04091CC046EEC74E08091EE040E9408
:1043C00078141092CD041092CC041092CB040F916B
:1043D000089561E00C94D621CF93DF930F92CDB76F
:1043E000DEB769838091CB048823B1F08091CC043F
:1043F0008032C0F48091CD04E82FF0E0E253FB4F0F
:1044000060838F5F8093CD048093CC0481E090E043
:104410000F90DF91CF91089561E0CE0101960E9447
:10442000E914F4CF90E080E0F3CF4F925F926F9267
:104430007F92AF92BF92CF92EF92FF920F931F9312
:10444000CF93DF935C01F62ED42F28013901E110C0
:104450001CC04D2FD13208F040E22C2D61EF74E0EA
:104460008F2D0E9435141092F0048093EF04DF9199
:10447000CF911F910F91FF90EF90CF90BF90AF9091
:104480007F906F905F904F9008950E94CA21CE2D2B
:10449000C43008F0C3E0C15090F028E0C29FC001D2
:1044A0001124A301920104C056954795379527958D
:1044B0008A95D2F7B901C5010E94EC21ECCF60E0EA
:1044C000C5010E94D621882321F280E0D0CFCF926F
:1044D000EF920F931F93C22EE12C00E010E09801A1
:1044E0000E9415221F910F91EF90CF90089521E027
:1044F0000C94672221E00C946722CF92DF92EF9216
:10450000FF920F931F93CF93DF937C01CB018A011E
:104510002091CB04222361F0EB016B01C40ED51E68
:10452000CC15DD0541F06991C7010E94EC21F8CF5F
:10453000642F0E94E914C801DF91CF911F910F9160
:10454000FF90EF90DF90CF9008958091EF049091CD
:10455000F004891B990B08959091F0048091EF0469
:104560002FEF3FEF981748F4E92FF0E0EF50FB4FA3
:10457000208130E09F5F9093F004C90108958091FD
:10458000CB0408950C941E150C946C151F921FB645
:104590001F9211242F933F934F935F938F939F9379
:1045A000EF93FF9320911805E0911505F091160502
:1045B000222329F18091110590E081509F4F9BBDEE
:1045C0008ABD40911205308181E090E002C0880FE1
:1045D000991F4A95E2F7809590958323808381E027
:1045E000282720931805FF91EF919F918F915F915C
:1045F0004F913F912F911F901FBE1F9018953091A2
:1046000011058DEE92E1831B91099BBD8ABD9091AE
:104610001205808141E050E001C0440F9A95EAF70D
:10462000842BDCCF642B67B9806C86B9349BFECFBA
:1046300084B195B10895862F0E94001481E090E026
:104640000895E9E1F5E01382128283EF91E091830E
:10465000808314820895AA1BBB1B51E107C0AA1FC7
:10466000BB1FA617B70710F0A61BB70B881F991F13
:104670005A95A9F780959095BC01CD01089597FBB7
:10468000072E16F4009407D077FD09D00E942B2343
:1046900007FC05D03EF4909581959F4F0895709545
:1046A00061957F4F0895A1E21A2EAA1BBB1BFD0145
:1046B0000DC0AA1FBB1FEE1FFF1FA217B307E40701
:1046C000F50720F0A21BB30BE40BF50B661F771F59
:1046D000881F991F1A9469F7609570958095909539
:1046E0009B01AC01BD01CF010895EE0FFF1F0590A6
:1046F000F491E02D09945058BB27AA270E949323D8
:104700000C940B250E94FD2438F00E94042520F013
:1047100039F49F3F19F426F40C94D3240EF4E09559
:10472000E7FB0C94CD24E92F0E941C2558F3BA17FF
:10473000620773078407950720F079F4A6F50C94B7
:104740003E250EF4E0950B2EBA2FA02D0B01B901DA
:1047500090010C01CA01A0011124FF27591B99F0F7
:10476000593F50F4503E68F11A16F040A22F232F03
:10477000342F4427585FF3CF469537952795A79553
:10478000F0405395C9F77EF41F16BA0B620B730BFA
:10479000840BBAF09150A1F0FF0FBB1F661F771F6B
:1047A000881FC2F70EC0BA0F621F731F841F48F420
:1047B000879577956795B795F7959E3F08F0B0CFA9
:1047C0009395880F08F09927EE0F97958795089590
:1047D0000E94FC230C940B250E94042558F00E9493
:1047E000FD2440F029F45F3F29F00C94CD245111B1
:1047F0000C943F250C94D3240E941C2568F3992324
:10480000B1F3552391F3951B550BBB27AA276217CC
:104810007307840738F09F5F5F4F220F331F441FD9
:10482000AA1FA9F335D00E2E3AF0E0E832D091500D
:104830005040E695001CCAF72BD0FE2F29D0660FFA
:10484000771F881FBB1F261737074807AB07B0E83D
:1048500009F0BB0B802DBF01FF2793585F4F3AF043
:104860009E3F510578F00C94CD240C943F255F3F7A
:10487000E4F3983ED4F3869577956795B795F795C9
:104880009F5FC9F7880F911D9695879597F90895B1
:10489000E1E0660F771F881FBB1F6217730784074D
:1048A000BA0720F0621B730B840BBA0BEE1F88F75C
:1048B000E09508950E9461246894B1110C943F25FD
:1048C00008950E94242588F09F5798F0B92F9927C2
:1048D000B751B0F0E1F0660F771F881F991F1AF0EB
:1048E000BA95C9F714C0B13091F00E943E25B1E0ED
:1048F00008950C943E25672F782F8827B85F39F0EC
:10490000B93FCCF3869577956795B395D9F73EF483
:1049100090958095709561957F4F8F4F9F4F08952B
:10492000E89409C097FB3EF4909580957095619549
:104930007F4F8F4F9F4F9923A9F0F92F96E9BB27FF
:104940009395F695879577956795B795F111F8CF7B
:10495000FAF4BB0F11F460FF1BC06F5F7F4F8F4FE6
:104960009F4F16C0882311F096E911C0772321F0DC
:104970009EE8872F762F05C0662371F096E8862F74
:1049800070E060E02AF09A95660F771F881FDAF7CB
:10499000880F9695879597F9089597F99F6780E80E
:1049A00070E060E008959FEF80EC0895DF93CF936F
:1049B0001F930F93FF92EF92DF927B018C0168941B
:1049C00006C0DA2EEF010E945825FE01E894A59159
:1049D0002591359145915591A6F3EF010E949323BE
:1049E000FE019701A801DA9469F7DF90EF90FF903C
:1049F0000F911F91CF91DF91089500240A9416160C
:104A0000170618060906089500240A9412161306BC
:104A1000140605060895092E0394000C11F488234A
:104A200052F0BB0F40F4BF2B11F460FF04C06F5F66
:104A30007F4F8F4F9F4F089557FD9058440F551F3C
:104A400059F05F3F71F04795880F97FB991F61F010
:104A50009F3F79F087950895121613061406551F87
:104A6000F2CF4695F1DF08C0161617061806991FF3
:104A7000F1CF86957105610508940895E894BB27E8
:104A800066277727CB0197F908950E9458250C9443
:104A90000B250E94FD2438F00E94042520F0952368
:104AA00011F00C94CD240C94D32411240C943F25A4
:104AB0000E941C2570F3959FC1F3950F50E0551F80
:104AC000629FF001729FBB27F00DB11D639FAA2763
:104AD000F00DB11DAA1F649F6627B00DA11D661FB2
:104AE000829F2227B00DA11D621F739FB00DA11DD3
:104AF000621F839FA00D611D221F749F3327A00D8D
:104B0000611D231F849F600D211D822F762F6A2F28
:104B100011249F5750409AF0F1F088234AF0EE0F8D
:104B2000FF1FBB1F661F771F881F91505040A9F7BA
:104B30009E3F510580F00C94CD240C943F255F3F9F
:104B4000E4F3983ED4F3869577956795B795F795F6
:104B5000E7959F5FC1F7FE2B880F911D969587956E
:104B600097F908959F930E94CA250F9007FCEE5F66
:104B70000C94F3259F3F31F0915020F48795779561
:104B80006795B795880F911D9695879597F9089524
:104B90000C94D3240E942425D8F3E894E0E0BB27AA
:104BA0009F57F0F02AED3FE049EC06C0EE0FBB0F37
:104BB000661F771F881F28F0B23A620773078407C1
:104BC00028F0B25A620B730B840BE3959A9572F737
:104BD000803830F49A95BB0F661F771F881FD2F775
:104BE00090480C94BC25EF93E0FF07C0A2EA2AEDA1
:104BF0003FE049EC5FEB0E9493230E940B250F904E
:104C0000039401FC9058E4E5F0E00C9407269F9390
:104C10008F937F936F93FF93EF939B01AC010E945F
:104C20004525EF91FF910E94D6242F913F914F91FE
:104C30005F910C9445250F931F93CF93DF938230A0
:104C4000910510F482E090E0E0912005F0912105BB
:104C500030E020E0B0E0A0E0309799F42115310574
:104C600009F447C0281B390B24303105C0F58A816F
:104C70009B816115710571F1FB0193838283FE01B4
:104C800011C0408151810281138148175907F8F002
:104C90004817590799F4109761F012960C931297E0
:104CA00013961C933296CF01DF91CF911F910F91F4
:104CB00008950093200510932105F4CF21153105A7
:104CC00019F04217530718F49A01BD01EF01DF01F3
:104CD000F801C2CF9093210580932005D0CFFE012B
:104CE000E20FF31F81939193225031093983288376
:104CF000DACF20911E0530911F05232B41F420911E
:104D000078003091790030931F0520931E05209183
:104D10007600309177002115310541F42DB73EB76B
:104D200040917A0050917B00241B350BE0911E05C9
:104D3000F0911F05E217F307A0F42E1B3F0B281775
:104D4000390778F0AC014E5F5F4F2417350748F004
:104D50004E0F5F1F50931F0540931E058193919343
:104D6000A2CFF0E0E0E09FCFCF93DF930097E9F090
:104D7000FC01329713821282C0912005D091210547
:104D8000DE0130E020E02097A1F420813181820F04
:104D9000931F20911E0530911F052817390709F030
:104DA00067C0F0931F05E0931E05DF91CF91089532
:104DB000DA01AE17BF0708F040C012964D915C9122
:104DC00013979D014115510599F7D9011396FC934D
:104DD000EE9312974D915D91A40FB51FEA17FB0753
:104DE00079F4808191810296840F951FD9011196E3
:104DF0009C938E938281938113969C938E931297AA
:104E0000B0E0A0E08A819B810097B9F5FE01819115
:104E10009191E80FF91F80911E0590911F058E1743
:104E20009F0719F6109761F5109221051092200541
:104E3000D0931F05C0931E05B8CFB383A2834081D2
:104E40005181840F951FA817B90771F44E5F5F4F0A
:104E50008D919C911197480F591F51834083129651
:104E60008D919C91938382832115310509F0ADCFFB
:104E7000F0932105E093200598CFDE01EC01C2CF2D
:104E800013961C921E921297D3CFB0E0A0E0EBE4F1
:104E9000F7E20C9418288C01009751F4CB010E9482
:104EA0001B268C01C801CDB7DEB7EEE00C94342888
:104EB000FC01E60FF71F9C0122503109E217F307AE
:104EC00008F4A6C0D901CD91DC911197C617D70778
:104ED00098F0C530D10530F3CE01049786179707B7
:104EE00008F3C61BD70B2297C193D1936D937C9384
:104EF000CF010E94B426D6CF4B018C1A9D0A5C01CB
:104F0000AC0EBD1EA0912005B0912105712C612C25
:104F1000F12CE12C109731F580911E0590911F0521
:104F20008A159B0509F065C06616770608F061C012
:104F30008091760090917700009741F48DB79EB7ED
:104F400040917A0050917B00841B950BE817F9077C
:104F500008F05EC0F0931F05E0931E05F901718310
:104F60006083A0CF8D919C911197AA15BB05B9F5CF
:104F70006C0142E0C40ED11CC814D90480F1AE010A
:104F8000461B570B480F591F1296DC901297139629
:104F9000AC915A01B2E0AB0EB11CB5E0AB16B10456
:104FA00080F0D282A38351834083D9016D937C9397
:104FB000E114F10479F0D7011396FC93EE93129764
:104FC00071CF22968C0F9D1FF90191838083ED2D67
:104FD000FA2FEECFF0932105E093200563CF6816FA
:104FE000790608F43C017D0112960D90BC91A02D2C
:104FF00091CFCB010E941B267C01009749F0AE01A6
:10500000B8010E940B28C8010E94B42687014ACF2C
:1050100010E000E047CFFB01DC0102C001900D92DF
:1050200041505040D8F708952F923F924F925F928F
:105030006F927F928F929F92AF92BF92CF92DF92A8
:10504000EF92FF920F931F93CF93DF93CDB7DEB70D
:10505000CA1BDB0B0FB6F894DEBF0FBECDBF0994A1
:105060002A88398848885F846E847D848C849B84F8
:10507000AA84B984C884DF80EE80FD800C811B8106
:10508000AA81B981CE0FD11D0FB6F894DEBF0FBE35
:10509000CDBFED01089511E0C8E2D1E004C0FE01EA
:1050A0000E9475232196C932D107C9F7F894FFCF22
:1050B000FF00FFFF14000A000000803F010AA40463
:1050C0009D04B204AB040000220520000000400053
:1050D000100050005468654B696E67734F66536FDC
:1050E000636365720053746172740053656E736F0D
:1050F00072656E004D6F746F72626F6172640058FA
:105100000053656E736F72656E41002D2D3E420037
:10511000426F64656E005069787900556C747261F5
:10512000736368616C6C0053656E736F72656E4279
:10513000002D2D3E4100436F6D7061737300427509
:1051400074746F6E73004C532C42616C6C00424F50
:1051500044454E00434F4D504153530043616C69E9
:10516000627261746500554C545241534348414C3E
:105170004C00483A005049585900426C6F636B73B9
:105180003A0042616C6C3A00583A00593A00546F48
:10519000723A00425554544F4E53004C6963687440
:1051A00073636872616E6B650042616C6C6E6168FE
:1051B0003A004D6F746F72656E00506F77657200C4
:1051C000544B4F53004655520044455554534348A1
:1051D0004C414E44005269636874002D002B00441A
:1051E00072616C6C3A004A61004E65696E005370E2
:1051F0006565640053636875737374657374004404
:10520000726962626C6572007061737365640050EC
:1052100061737365640000000000B3190F1AE11890
:10522000E4180D0A006E616E00696E66006F7666A6
:105230000073657420313238206572726F7200001D
:0C5240000000001B230F1AE118E4180006
:00000001FF
